:100000000C944A000C945F000C945F000C945F0009
:100010000C945F000C945F000C945F000C945F00E4
:100020000C945F000C945F000C945F000C945F00D4
:100030000C945F000C945F000C945F000C945F00C4
:100040000C945F000C945F000C945F000C945F00B4
:100050000C945F00001F000000001F00001F101024
:1000600010101F00001F181818181F00001F1C1C5C
:100070001C1C1F00001F1E1E1E1E1F00001F1F1F16
:100080001F1F1F0003070F1F0F070300181C1E1F51
:100090001E1C180011241FBECFE5D4E0DEBFCDBF6B
:1000A00010E0A0E6B0E0ECE1F4E002C005900D92B3
:1000B000AE37B107D9F70E9461000C940C020C9482
:1000C0000000CF93DF938FEF84BB0E940A010E9450
:1000D00072010E94A30084ED90E30197F1F70E9462
:1000E000A700C9E1D0E080E060E00E94C00080E6A7
:1000F00090E00E94DA0180E061E00E94C00080E7A9
:1001000090E00E94DA0188E893E1FE013197F1F76F
:100110000197D9F7E8CF85BB959A979A8AEF90E037
:10012000FC013197F1F7979895980197F1F70895A9
:1001300085BB979A8AEF90E0FC013197F1F7979889
:100140000197F1F7089581E00E949800089582E0F8
:100150000E94980008950F931F93CF93DF93062F6B
:10016000009749F0EC0110E004C089910E948B00D7
:100170001F5F1017D0F3DF91CF911F910F9108955A
:10018000623031F0633031F0613029F4805C03C0BB
:100190008C5E01C08C5A80680E94980008951F935D
:1001A000CF93DF93EC01862F642F0E94C00010E0F4
:1001B00003C00E948B001F5FFE01E10FF11D8491BF
:1001C0008823B9F7DF91CF911F910895EF92FF92A5
:1001D0000F931F93CF93DF937C01162F110F110FF5
:1001E000110F1064C0E0D0E0F701EC0FFD1F049187
:1001F000812F8C0F0E949800802F0E948B002196E7
:10020000C830D10589F7DF91CF911F910F91FF90F1
:10021000EF9008951F93CF93DF9386EA9EE00197B6
:10022000F1F715BA82B3807E82BB84B38FEF84BBB3
:1002300081B3806E81BB20E325BB979A8AEF90E063
:10024000FC013197F1F79798FC013197F1F725BB45
:10025000979AFC013197F1F79798FC013197F1F7E4
:1002600025BB979AFC013197F1F797980197F1F721
:1002700088E30E9498008CE00E949800C4E5D0E0DA
:1002800060E0162F1F5FCE010E94E6002896612FC6
:100290001830B9F7DF91CF911F9108950F931F93F5
:1002A000082F10E004C08EE10E9498001F5F101715
:1002B000D0F31F910F9108950F931F93082F10E013
:1002C00004C088E10E9498001F5F1017D0F31F91AF
:1002D0000F9108958EE00E94980008958FE00E948B
:1002E000980008958CE00E949800089588E00E948C
:1002F000980008958CE00E94980008950F931F9332
:10030000082F10E004C080E10E9498001F5F1017C2
:10031000D0F31F910F9108950F931F93082F10E0B2
:1003200004C084E10E9498001F5F1017D0F31F9152
:100330000F910895DF92EF92FF920F931F93CF9347
:10034000DF93D42E96E0899FC0011124242F30E042
:10035000AC01429FC001439F900D529F900D11240C
:1003600070E00E94F901EB01CB0166E070E00E94B1
:10037000E501E82EFF2400E010E012C0C801059658
:10038000C817D90710F085E006C0C017D10710F0D4
:100390008E2D01C080E00E948B00F3940A5F1F4FF6
:1003A000FD1460F3DF91CF911F910F91FF90EF90BB
:1003B000DF900895DC010D900020E9F71197A81B4C
:1003C000B90B6A2F0E94AB000895AA1BBB1B51E119
:1003D00007C0AA1FBB1FA617B70710F0A61BB70BB5
:1003E000881F991F5A95A9F780959095BC01CD015A
:1003F000089597FB092E07260AD077FD04D0E5DF84
:1004000006D000201AF4709561957F4F0895F6F795
:0C041000909581959F4F0895F894FFCFC0
:10041C00694E4E6F766174696F6E4D6572676500DB
:0E042C0041544D4547413136204C43440000B9
:00000001FF
