:100000000C944A000C9467000C9467000C946700F1
:100010000C9467000C9467000C9467000C946700C4
:100020000C9467000C9467000C9467000C946700B4
:100030000C9467000C9467000C9467000C946700A4
:100040000C9467000C9467000C9467000C94670094
:100050000C946700001F000000001F00001F10101C
:1000600010101F00001F181818181F00001F1C1C5C
:100070001C1C1F00001F1E1E1E1E1F00001F1F1F16
:100080001F1F1F0003070F1F0F070300181C1E1F51
:100090001E1C180011241FBECFE5D4E0DEBFCDBF6B
:1000A00010E0A0E6B0E0E0E9F4E002C005900D92B7
:1000B000AA39B107D9F710E0AAE9B0E001C01D9252
:1000C000AB3AB107E1F70E9469000C9446020C9428
:1000D00000001F93CF93DF930E9444010E94DD0034
:1000E0000E94C0008FEF87BBC0E9D1E01FEF80E026
:1000F0000E94B60090939B0080939A0080E060E09D
:100100000E94FA0080E690E00E94140288EE93E0DC
:10011000FE013197F1F70197D9F780919A009091FC
:100120009B00853691058CF480E061E00E94FA0026
:1001300081E790E00E94140218BA88EB9BE0FE0170
:100140003197F1F70197D9F7D2CF80E061E00E94B3
:10015000FA0087E890E00E94140218BB88EB9BE04D
:10016000FE013197F1F70197D9F7C1CF806487B9C4
:10017000369A349BFECF349A24B135B1C901089523
:1001800080E487B985E886B9089585BB959A979AE2
:100190008AEF90E0FC013197F1F7979895980197D5
:1001A000F1F7089585BB979A8AEF90E0FC013197AB
:1001B000F1F797980197F1F7089581E00E94D20036
:1001C000089582E00E94D20008950F931F93CF9369
:1001D000DF93062F009749F0EC0110E004C08991ED
:1001E0000E94C5001F5F1017D0F3DF91CF911F91C0
:1001F0000F910895623031F0633031F0613029F4AD
:10020000805C03C08C5E01C08C5A80680E94D20062
:1002100008951F93CF93DF93EC01862F642F0E94E4
:10022000FA0010E003C00E94C5001F5FFE01E10F4D
:10023000F11D84918823B9F7DF91CF911F91089523
:10024000EF92FF920F931F93CF93DF937C01162FB2
:10025000110F110F110F1064C0E0D0E0F701EC0F87
:10026000FD1F0491812F8C0F0E94D200802F0E94CD
:10027000C5002196C830D10589F7DF91CF911F9134
:100280000F91FF90EF9008951F93CF93DF9386EA2D
:100290009EE00197F1F715BA82B3807E82BB84B3EA
:1002A0008FEF84BB81B3806E81BB20E325BB979A1F
:1002B0008AEF90E0FC013197F1F79798FC013197B4
:1002C000F1F725BB979AFC013197F1F79798FC015C
:1002D0003197F1F725BB979AFC013197F1F7979881
:1002E0000197F1F788E30E94D2008CE00E94D200CF
:1002F000C4E5D0E060E0162F1F5FCE010E94200110
:100300002896612F1830B9F7DF91CF911F9108958A
:100310000F931F93082F10E004C08EE10E94D200BB
:100320001F5F1017D0F31F910F9108950F931F9324
:10033000082F10E004C088E10E94D2001F5F101750
:10034000D0F31F910F9108958EE00E94D20008957E
:100350008FE00E94D20008958CE00E94D2000895A0
:1003600088E00E94D20008958CE00E94D200089597
:100370000F931F93082F10E004C080E10E94D20069
:100380001F5F1017D0F31F910F9108950F931F93C4
:10039000082F10E004C084E10E94D2001F5F1017F4
:1003A000D0F31F910F910895DF92EF92FF920F9378
:1003B0001F93CF93DF93D42E96E0899FC001112421
:1003C000242F30E0AC01429FC001439F900D529F0B
:1003D000900D112470E00E943302EB01CB0166E026
:1003E00070E00E941F02E82EFF2400E010E012C01F
:1003F000C8010596C817D90710F085E006C0C017D8
:10040000D10710F08E2D01C080E00E94C500F3944A
:100410000A5F1F4FFD1460F3DF91CF911F910F9181
:10042000FF90EF90DF900895DC010D900020E9F738
:100430001197A81BB90B6A2F0E94E5000895AA1B0B
:10044000BB1B51E107C0AA1FBB1FA617B70710F0BF
:10045000A61BB70B881F991F5A95A9F780959095F1
:10046000BC01CD01089597FB092E07260AD077FD20
:1004700004D0E5DF06D000201AF4709561957F4F17
:100480000895F6F7909581959F4F0895F894FFCFC2
:100490004F626A656374204465746563746F723A71
:1004A000004E6F7420446574656374656420202079
:1004B000202020202020004465746563746564203A
:0A04C0002020202020202020200012
:00000001FF
